{
  "_format": "hh-sol-artifact-1",
  "contractName": "LabPunks",
  "sourceName": "contracts/LabPunks.sol",
  "abi": [
    {
      "inputs": [],
      "stateMutability": "nonpayable",
      "type": "constructor"
    },
    {
      "inputs": [],
      "name": "ApprovalCallerNotOwnerNorApproved",
      "type": "error"
    },
    {
      "inputs": [],
      "name": "ApprovalQueryForNonexistentToken",
      "type": "error"
    },
    {
      "inputs": [],
      "name": "BalanceQueryForZeroAddress",
      "type": "error"
    },
    {
      "inputs": [],
      "name": "MintERC2309QuantityExceedsLimit",
      "type": "error"
    },
    {
      "inputs": [],
      "name": "MintToZeroAddress",
      "type": "error"
    },
    {
      "inputs": [],
      "name": "MintZeroQuantity",
      "type": "error"
    },
    {
      "inputs": [],
      "name": "OwnerQueryForNonexistentToken",
      "type": "error"
    },
    {
      "inputs": [],
      "name": "OwnershipNotInitializedForExtraData",
      "type": "error"
    },
    {
      "inputs": [],
      "name": "TransferCallerNotOwnerNorApproved",
      "type": "error"
    },
    {
      "inputs": [],
      "name": "TransferFromIncorrectOwner",
      "type": "error"
    },
    {
      "inputs": [],
      "name": "TransferToNonERC721ReceiverImplementer",
      "type": "error"
    },
    {
      "inputs": [],
      "name": "TransferToZeroAddress",
      "type": "error"
    },
    {
      "inputs": [],
      "name": "URIQueryForNonexistentToken",
      "type": "error"
    },
    {
      "anonymous": false,
      "inputs": [
        {
          "indexed": true,
          "internalType": "address",
          "name": "owner",
          "type": "address"
        },
        {
          "indexed": true,
          "internalType": "address",
          "name": "approved",
          "type": "address"
        },
        {
          "indexed": true,
          "internalType": "uint256",
          "name": "tokenId",
          "type": "uint256"
        }
      ],
      "name": "Approval",
      "type": "event"
    },
    {
      "anonymous": false,
      "inputs": [
        {
          "indexed": true,
          "internalType": "address",
          "name": "owner",
          "type": "address"
        },
        {
          "indexed": true,
          "internalType": "address",
          "name": "operator",
          "type": "address"
        },
        {
          "indexed": false,
          "internalType": "bool",
          "name": "approved",
          "type": "bool"
        }
      ],
      "name": "ApprovalForAll",
      "type": "event"
    },
    {
      "anonymous": false,
      "inputs": [
        {
          "indexed": true,
          "internalType": "uint256",
          "name": "fromTokenId",
          "type": "uint256"
        },
        {
          "indexed": false,
          "internalType": "uint256",
          "name": "toTokenId",
          "type": "uint256"
        },
        {
          "indexed": true,
          "internalType": "address",
          "name": "from",
          "type": "address"
        },
        {
          "indexed": true,
          "internalType": "address",
          "name": "to",
          "type": "address"
        }
      ],
      "name": "ConsecutiveTransfer",
      "type": "event"
    },
    {
      "anonymous": false,
      "inputs": [
        {
          "indexed": false,
          "internalType": "string",
          "name": "baseTokenUri",
          "type": "string"
        }
      ],
      "name": "EmitTokenUri",
      "type": "event"
    },
    {
      "anonymous": false,
      "inputs": [
        {
          "indexed": true,
          "internalType": "address",
          "name": "previousOwner",
          "type": "address"
        },
        {
          "indexed": true,
          "internalType": "address",
          "name": "newOwner",
          "type": "address"
        }
      ],
      "name": "OwnershipTransferred",
      "type": "event"
    },
    {
      "anonymous": false,
      "inputs": [
        {
          "indexed": true,
          "internalType": "address",
          "name": "from",
          "type": "address"
        },
        {
          "indexed": true,
          "internalType": "address",
          "name": "to",
          "type": "address"
        },
        {
          "indexed": true,
          "internalType": "uint256",
          "name": "tokenId",
          "type": "uint256"
        }
      ],
      "name": "Transfer",
      "type": "event"
    },
    {
      "inputs": [],
      "name": "MAX_SUPPLY",
      "outputs": [
        {
          "internalType": "uint256",
          "name": "",
          "type": "uint256"
        }
      ],
      "stateMutability": "view",
      "type": "function"
    },
    {
      "inputs": [
        {
          "internalType": "address",
          "name": "to",
          "type": "address"
        },
        {
          "internalType": "uint256",
          "name": "tokenId",
          "type": "uint256"
        }
      ],
      "name": "approve",
      "outputs": [],
      "stateMutability": "payable",
      "type": "function"
    },
    {
      "inputs": [
        {
          "internalType": "address",
          "name": "owner",
          "type": "address"
        }
      ],
      "name": "balanceOf",
      "outputs": [
        {
          "internalType": "uint256",
          "name": "",
          "type": "uint256"
        }
      ],
      "stateMutability": "view",
      "type": "function"
    },
    {
      "inputs": [
        {
          "internalType": "bool",
          "name": "publicSaleState",
          "type": "bool"
        }
      ],
      "name": "changePublicSaleState",
      "outputs": [],
      "stateMutability": "nonpayable",
      "type": "function"
    },
    {
      "inputs": [
        {
          "internalType": "uint256",
          "name": "tokenId",
          "type": "uint256"
        }
      ],
      "name": "getApproved",
      "outputs": [
        {
          "internalType": "address",
          "name": "",
          "type": "address"
        }
      ],
      "stateMutability": "view",
      "type": "function"
    },
    {
      "inputs": [],
      "name": "getBaseUri",
      "outputs": [],
      "stateMutability": "nonpayable",
      "type": "function"
    },
    {
      "inputs": [
        {
          "internalType": "address",
          "name": "owner",
          "type": "address"
        },
        {
          "internalType": "address",
          "name": "operator",
          "type": "address"
        }
      ],
      "name": "isApprovedForAll",
      "outputs": [
        {
          "internalType": "bool",
          "name": "",
          "type": "bool"
        }
      ],
      "stateMutability": "view",
      "type": "function"
    },
    {
      "inputs": [],
      "name": "isPublicSaleRunning",
      "outputs": [
        {
          "internalType": "bool",
          "name": "",
          "type": "bool"
        }
      ],
      "stateMutability": "view",
      "type": "function"
    },
    {
      "inputs": [],
      "name": "maxPerAddressDuringMint",
      "outputs": [
        {
          "internalType": "uint256",
          "name": "",
          "type": "uint256"
        }
      ],
      "stateMutability": "view",
      "type": "function"
    },
    {
      "inputs": [
        {
          "internalType": "uint256",
          "name": "quantity",
          "type": "uint256"
        }
      ],
      "name": "mint",
      "outputs": [],
      "stateMutability": "payable",
      "type": "function"
    },
    {
      "inputs": [],
      "name": "name",
      "outputs": [
        {
          "internalType": "string",
          "name": "",
          "type": "string"
        }
      ],
      "stateMutability": "view",
      "type": "function"
    },
    {
      "inputs": [
        {
          "internalType": "address",
          "name": "owner",
          "type": "address"
        }
      ],
      "name": "numberMinted",
      "outputs": [
        {
          "internalType": "uint256",
          "name": "",
          "type": "uint256"
        }
      ],
      "stateMutability": "view",
      "type": "function"
    },
    {
      "inputs": [],
      "name": "owner",
      "outputs": [
        {
          "internalType": "address",
          "name": "",
          "type": "address"
        }
      ],
      "stateMutability": "view",
      "type": "function"
    },
    {
      "inputs": [
        {
          "internalType": "uint256",
          "name": "tokenId",
          "type": "uint256"
        }
      ],
      "name": "ownerOf",
      "outputs": [
        {
          "internalType": "address",
          "name": "",
          "type": "address"
        }
      ],
      "stateMutability": "view",
      "type": "function"
    },
    {
      "inputs": [],
      "name": "renounceOwnership",
      "outputs": [],
      "stateMutability": "nonpayable",
      "type": "function"
    },
    {
      "inputs": [
        {
          "internalType": "address",
          "name": "from",
          "type": "address"
        },
        {
          "internalType": "address",
          "name": "to",
          "type": "address"
        },
        {
          "internalType": "uint256",
          "name": "tokenId",
          "type": "uint256"
        }
      ],
      "name": "safeTransferFrom",
      "outputs": [],
      "stateMutability": "payable",
      "type": "function"
    },
    {
      "inputs": [
        {
          "internalType": "address",
          "name": "from",
          "type": "address"
        },
        {
          "internalType": "address",
          "name": "to",
          "type": "address"
        },
        {
          "internalType": "uint256",
          "name": "tokenId",
          "type": "uint256"
        },
        {
          "internalType": "bytes",
          "name": "_data",
          "type": "bytes"
        }
      ],
      "name": "safeTransferFrom",
      "outputs": [],
      "stateMutability": "payable",
      "type": "function"
    },
    {
      "inputs": [
        {
          "internalType": "address",
          "name": "operator",
          "type": "address"
        },
        {
          "internalType": "bool",
          "name": "approved",
          "type": "bool"
        }
      ],
      "name": "setApprovalForAll",
      "outputs": [],
      "stateMutability": "nonpayable",
      "type": "function"
    },
    {
      "inputs": [
        {
          "internalType": "string",
          "name": "baseURI",
          "type": "string"
        }
      ],
      "name": "setBaseURI",
      "outputs": [],
      "stateMutability": "nonpayable",
      "type": "function"
    },
    {
      "inputs": [
        {
          "internalType": "bytes4",
          "name": "interfaceId",
          "type": "bytes4"
        }
      ],
      "name": "supportsInterface",
      "outputs": [
        {
          "internalType": "bool",
          "name": "",
          "type": "bool"
        }
      ],
      "stateMutability": "view",
      "type": "function"
    },
    {
      "inputs": [],
      "name": "symbol",
      "outputs": [
        {
          "internalType": "string",
          "name": "",
          "type": "string"
        }
      ],
      "stateMutability": "view",
      "type": "function"
    },
    {
      "inputs": [
        {
          "internalType": "uint256",
          "name": "tokenId",
          "type": "uint256"
        }
      ],
      "name": "tokenURI",
      "outputs": [
        {
          "internalType": "string",
          "name": "",
          "type": "string"
        }
      ],
      "stateMutability": "view",
      "type": "function"
    },
    {
      "inputs": [],
      "name": "totalSupply",
      "outputs": [
        {
          "internalType": "uint256",
          "name": "",
          "type": "uint256"
        }
      ],
      "stateMutability": "view",
      "type": "function"
    },
    {
      "inputs": [
        {
          "internalType": "address",
          "name": "from",
          "type": "address"
        },
        {
          "internalType": "address",
          "name": "to",
          "type": "address"
        },
        {
          "internalType": "uint256",
          "name": "tokenId",
          "type": "uint256"
        }
      ],
      "name": "transferFrom",
      "outputs": [],
      "stateMutability": "payable",
      "type": "function"
    },
    {
      "inputs": [
        {
          "internalType": "address",
          "name": "newOwner",
          "type": "address"
        }
      ],
      "name": "transferOwnership",
      "outputs": [],
      "stateMutability": "nonpayable",
      "type": "function"
    },
    {
      "inputs": [],
      "name": "withdrawMoney",
      "outputs": [],
      "stateMutability": "nonpayable",
      "type": "function"
    }
  ],
  "bytecode": "0x60806040526000600960006101000a81548160ff0219169083151502179055506000600960016101000a81548160ff021916908315150217905550662386f26fc10000600a5566354a6ba7a18000600b553480156200005d57600080fd5b506040518060400160405280600881526020017f4c616250756e6b730000000000000000000000000000000000000000000000008152506040518060400160405280600281526020017f4c50000000000000000000000000000000000000000000000000000000000000815250620000ea620000de6200012c60201b60201c565b6200013460201b60201c565b816002908051906020019062000102929190620001f8565b5080600390805190602001906200011b929190620001f8565b50505060016008819055506200030d565b600033905090565b60008060009054906101000a900473ffffffffffffffffffffffffffffffffffffffff169050816000806101000a81548173ffffffffffffffffffffffffffffffffffffffff021916908373ffffffffffffffffffffffffffffffffffffffff1602179055508173ffffffffffffffffffffffffffffffffffffffff168173ffffffffffffffffffffffffffffffffffffffff167f8be0079c531659141344cd1fd0a4f28419497f9722a3daafe3b4186f6b6457e060405160405180910390a35050565b8280546200020690620002a8565b90600052602060002090601f0160209004810192826200022a576000855562000276565b82601f106200024557805160ff191683800117855562000276565b8280016001018555821562000276579182015b828111156200027557825182559160200191906001019062000258565b5b50905062000285919062000289565b5090565b5b80821115620002a45760008160009055506001016200028a565b5090565b60006002820490506001821680620002c157607f821691505b60208210811415620002d857620002d7620002de565b5b50919050565b7f4e487b7100000000000000000000000000000000000000000000000000000000600052602260045260246000fd5b6141eb806200031d6000396000f3fe6080604052600436106101e35760003560e01c8063785cdcf011610102578063ac44600211610095578063d5e4a36e11610064578063d5e4a36e146106c2578063dc33e681146106ed578063e985e9c51461072a578063f2fde38b14610767576101e3565b8063ac4460021461063b578063ace6cf1114610652578063b88d4fde1461065c578063c87b56dd14610685576101e3565b8063a0712d68116100d1578063a0712d68146105a4578063a22cb465146105c0578063a776155d146105e9578063ab2d5ccd14610612576101e3565b8063785cdcf0146104e65780638bc35c2f146105235780638da5cb5b1461054e57806395d89b4114610579576101e3565b806332cb6b0c1161017a57806355f804b31161014957806355f804b31461042c5780636352211e1461045557806370a0823114610492578063715018a6146104cf576101e3565b806332cb6b0c1461037257806342842e0e1461039d5780634f6ccce7146103c657806353b2a45714610403576101e3565b80630ffaccfd116101b65780630ffaccfd146102b657806318160ddd146102e157806323b872dd1461030c5780632f745c5914610335576101e3565b806301ffc9a7146101e857806306fdde0314610225578063081812fc14610250578063095ea7b31461028d575b600080fd5b3480156101f457600080fd5b5061020f600480360381019061020a9190613616565b610790565b60405161021c91906139b3565b60405180910390f35b34801561023157600080fd5b5061023a6108da565b60405161024791906139e9565b60405180910390f35b34801561025c57600080fd5b50610277600480360381019061027291906136ad565b61096c565b604051610284919061394c565b60405180910390f35b34801561029957600080fd5b506102b460048036038101906102af9190613545565b6109e8565b005b3480156102c257600080fd5b506102cb610af3565b6040516102d891906139b3565b60405180910390f35b3480156102ed57600080fd5b506102f6610b06565b6040516103039190613b2b565b60405180910390f35b34801561031857600080fd5b50610333600480360381019061032e919061343f565b610b5e565b005b34801561034157600080fd5b5061035c60048036038101906103579190613545565b610b6e565b6040516103699190613b2b565b60405180910390f35b34801561037e57600080fd5b50610387610d76565b6040516103949190613b2b565b60405180910390f35b3480156103a957600080fd5b506103c460048036038101906103bf919061343f565b610d7c565b005b3480156103d257600080fd5b506103ed60048036038101906103e891906136ad565b610d9c565b6040516103fa9190613b2b565b60405180910390f35b34801561040f57600080fd5b5061042a60048036038101906104259190613581565b610f0f565b005b34801561043857600080fd5b50610453600480360381019061044e9190613668565b6110b7565b005b34801561046157600080fd5b5061047c600480360381019061047791906136ad565b611149565b604051610489919061394c565b60405180910390f35b34801561049e57600080fd5b506104b960048036038101906104b491906133da565b61115f565b6040516104c69190613b2b565b60405180910390f35b3480156104db57600080fd5b506104e461122f565b005b3480156104f257600080fd5b5061050d600480360381019061050891906133da565b6112b7565b60405161051a9190613b2b565b60405180910390f35b34801561052f57600080fd5b506105386112cf565b6040516105459190613b2b565b60405180910390f35b34801561055a57600080fd5b506105636112d4565b604051610570919061394c565b60405180910390f35b34801561058557600080fd5b5061058e6112fd565b60405161059b91906139e9565b60405180910390f35b6105be60048036038101906105b991906136ad565b61138f565b005b3480156105cc57600080fd5b506105e760048036038101906105e29190613509565b61151f565b005b3480156105f557600080fd5b50610610600480360381019061060b91906135ed565b611697565b005b34801561061e57600080fd5b50610639600480360381019061063491906135ed565b611730565b005b34801561064757600080fd5b506106506117c9565b005b61065a61194a565b005b34801561066857600080fd5b50610683600480360381019061067e919061348e565b611b5c565b005b34801561069157600080fd5b506106ac60048036038101906106a791906136ad565b611baf565b6040516106b991906139e9565b60405180910390f35b3480156106ce57600080fd5b506106d7611c4e565b6040516106e491906139b3565b60405180910390f35b3480156106f957600080fd5b50610714600480360381019061070f91906133da565b611c61565b6040516107219190613b2b565b60405180910390f35b34801561073657600080fd5b50610751600480360381019061074c9190613403565b611c73565b60405161075e91906139b3565b60405180910390f35b34801561077357600080fd5b5061078e600480360381019061078991906133da565b611d07565b005b60007f80ac58cd000000000000000000000000000000000000000000000000000000007bffffffffffffffffffffffffffffffffffffffffffffffffffffffff1916827bffffffffffffffffffffffffffffffffffffffffffffffffffffffff1916148061085b57507f5b5e139f000000000000000000000000000000000000000000000000000000007bffffffffffffffffffffffffffffffffffffffffffffffffffffffff1916827bffffffffffffffffffffffffffffffffffffffffffffffffffffffff1916145b806108c357507f780e9d63000000000000000000000000000000000000000000000000000000007bffffffffffffffffffffffffffffffffffffffffffffffffffffffff1916827bffffffffffffffffffffffffffffffffffffffffffffffffffffffff1916145b806108d357506108d282611dff565b5b9050919050565b6060600280546108e990613def565b80601f016020809104026020016040519081016040528092919081815260200182805461091590613def565b80156109625780601f1061093757610100808354040283529160200191610962565b820191906000526020600020905b81548152906001019060200180831161094557829003601f168201915b5050505050905090565b600061097782611e69565b6109ad576040517fcf4700e400000000000000000000000000000000000000000000000000000000815260040160405180910390fd5b6006600083815260200190815260200160002060009054906101000a900473ffffffffffffffffffffffffffffffffffffffff169050919050565b60006109f382611149565b90508073ffffffffffffffffffffffffffffffffffffffff168373ffffffffffffffffffffffffffffffffffffffff161415610a5b576040517f943f7b8c00000000000000000000000000000000000000000000000000000000815260040160405180910390fd5b8073ffffffffffffffffffffffffffffffffffffffff16610a7a611ed2565b73ffffffffffffffffffffffffffffffffffffffff1614158015610aac5750610aaa81610aa5611ed2565b611c73565b155b15610ae3576040517fcfb3b94200000000000000000000000000000000000000000000000000000000815260040160405180910390fd5b610aee838383611eda565b505050565b600960019054906101000a900460ff1681565b6000600160109054906101000a90046fffffffffffffffffffffffffffffffff16600160009054906101000a90046fffffffffffffffffffffffffffffffff16036fffffffffffffffffffffffffffffffff16905090565b610b69838383611f8c565b505050565b6000610b798361115f565b8210610bb1576040517f0ddac30e00000000000000000000000000000000000000000000000000000000815260040160405180910390fd5b6000600160009054906101000a90046fffffffffffffffffffffffffffffffff166fffffffffffffffffffffffffffffffff16905060008060005b83811015610d6a576000600460008381526020019081526020016000206040518060600160405290816000820160009054906101000a900473ffffffffffffffffffffffffffffffffffffffff1673ffffffffffffffffffffffffffffffffffffffff1673ffffffffffffffffffffffffffffffffffffffff1681526020016000820160149054906101000a900467ffffffffffffffff1667ffffffffffffffff1667ffffffffffffffff16815260200160008201601c9054906101000a900460ff1615151515815250509050806040015115610cc95750610d5d565b600073ffffffffffffffffffffffffffffffffffffffff16816000015173ffffffffffffffffffffffffffffffffffffffff1614610d0957806000015192505b8773ffffffffffffffffffffffffffffffffffffffff168373ffffffffffffffffffffffffffffffffffffffff161415610d5b5786841415610d52578195505050505050610d70565b83806001019450505b505b8080600101915050610bec565b50600080fd5b92915050565b6103e881565b610d9783838360405180602001604052806000815250611b5c565b505050565b600080600160009054906101000a90046fffffffffffffffffffffffffffffffff166fffffffffffffffffffffffffffffffff1690506000805b82811015610ed7576000600460008381526020019081526020016000206040518060600160405290816000820160009054906101000a900473ffffffffffffffffffffffffffffffffffffffff1673ffffffffffffffffffffffffffffffffffffffff1673ffffffffffffffffffffffffffffffffffffffff1681526020016000820160149054906101000a900467ffffffffffffffff1667ffffffffffffffff1667ffffffffffffffff16815260200160008201601c9054906101000a900460ff16151515158152505090508060400151610ec95785831415610ec05781945050505050610f0a565b82806001019350505b508080600101915050610dd6565b506040517fa723001c00000000000000000000000000000000000000000000000000000000815260040160405180910390fd5b919050565b610f17611ed2565b73ffffffffffffffffffffffffffffffffffffffff16610f356112d4565b73ffffffffffffffffffffffffffffffffffffffff1614610f8b576040517f08c379a0000000000000000000000000000000000000000000000000000000008152600401610f8290613a8b565b60405180910390fd5b8051825114610fcf576040517f08c379a0000000000000000000000000000000000000000000000000000000008152600401610fc690613b0b565b60405180910390fd5b60005b82518110156110b257818181518110611014577f4e487b7100000000000000000000000000000000000000000000000000000000600052603260045260246000fd5b6020026020010151600c6000858481518110611059577f4e487b7100000000000000000000000000000000000000000000000000000000600052603260045260246000fd5b602002602001015173ffffffffffffffffffffffffffffffffffffffff1673ffffffffffffffffffffffffffffffffffffffff1681526020019081526020016000208190555080806110aa90613e52565b915050610fd2565b505050565b6110bf611ed2565b73ffffffffffffffffffffffffffffffffffffffff166110dd6112d4565b73ffffffffffffffffffffffffffffffffffffffff1614611133576040517f08c379a000000000000000000000000000000000000000000000000000000000815260040161112a90613a8b565b60405180910390fd5b8181600d91906111449291906130ad565b505050565b6000611154826124ab565b600001519050919050565b60008073ffffffffffffffffffffffffffffffffffffffff168273ffffffffffffffffffffffffffffffffffffffff1614156111c7576040517f8f4eb60400000000000000000000000000000000000000000000000000000000815260040160405180910390fd5b600560008373ffffffffffffffffffffffffffffffffffffffff1673ffffffffffffffffffffffffffffffffffffffff16815260200190815260200160002060000160009054906101000a900467ffffffffffffffff1667ffffffffffffffff169050919050565b611237611ed2565b73ffffffffffffffffffffffffffffffffffffffff166112556112d4565b73ffffffffffffffffffffffffffffffffffffffff16146112ab576040517f08c379a00000000000000000000000000000000000000000000000000000000081526004016112a290613a8b565b60405180910390fd5b6112b56000612755565b565b600c6020528060005260406000206000915090505481565b600581565b60008060009054906101000a900473ffffffffffffffffffffffffffffffffffffffff16905090565b60606003805461130c90613def565b80601f016020809104026020016040519081016040528092919081815260200182805461133890613def565b80156113855780601f1061135a57610100808354040283529160200191611385565b820191906000526020600020905b81548152906001019060200180831161136857829003601f168201915b5050505050905090565b3373ffffffffffffffffffffffffffffffffffffffff163273ffffffffffffffffffffffffffffffffffffffff16146113fd576040517f08c379a00000000000000000000000000000000000000000000000000000000081526004016113f490613a2b565b60405180910390fd5b600960019054906101000a900460ff1661141657600080fd5b6103e881611422610b06565b61142c9190613c42565b111561146d576040517f08c379a000000000000000000000000000000000000000000000000000000000815260040161146490613a4b565b60405180910390fd5b60058161147933611c61565b6114839190613c42565b11156114c4576040517f08c379a00000000000000000000000000000000000000000000000000000000081526004016114bb90613acb565b60405180910390fd5b6114ce3382612819565b3373ffffffffffffffffffffffffffffffffffffffff167f52277f0b4a9b555c5aa96900a13546f972bda413737ec164aac947c87eec6024826040516115149190613b2b565b60405180910390a250565b611527611ed2565b73ffffffffffffffffffffffffffffffffffffffff168273ffffffffffffffffffffffffffffffffffffffff16141561158c576040517fb06307db00000000000000000000000000000000000000000000000000000000815260040160405180910390fd5b8060076000611599611ed2565b73ffffffffffffffffffffffffffffffffffffffff1673ffffffffffffffffffffffffffffffffffffffff16815260200190815260200160002060008473ffffffffffffffffffffffffffffffffffffffff1673ffffffffffffffffffffffffffffffffffffffff16815260200190815260200160002060006101000a81548160ff0219169083151502179055508173ffffffffffffffffffffffffffffffffffffffff16611646611ed2565b73ffffffffffffffffffffffffffffffffffffffff167f17307eab39ab6107e8899845ad3d59bd9653f200f220920489ca2b5937696c318360405161168b91906139b3565b60405180910390a35050565b61169f611ed2565b73ffffffffffffffffffffffffffffffffffffffff166116bd6112d4565b73ffffffffffffffffffffffffffffffffffffffff1614611713576040517f08c379a000000000000000000000000000000000000000000000000000000000815260040161170a90613a8b565b60405180910390fd5b80600960006101000a81548160ff02191690831515021790555050565b611738611ed2565b73ffffffffffffffffffffffffffffffffffffffff166117566112d4565b73ffffffffffffffffffffffffffffffffffffffff16146117ac576040517f08c379a00000000000000000000000000000000000000000000000000000000081526004016117a390613a8b565b60405180910390fd5b80600960016101000a81548160ff02191690831515021790555050565b6117d1611ed2565b73ffffffffffffffffffffffffffffffffffffffff166117ef6112d4565b73ffffffffffffffffffffffffffffffffffffffff1614611845576040517f08c379a000000000000000000000000000000000000000000000000000000000815260040161183c90613a8b565b60405180910390fd5b6002600854141561188b576040517f08c379a000000000000000000000000000000000000000000000000000000000815260040161188290613aeb565b60405180910390fd5b600260088190555060003373ffffffffffffffffffffffffffffffffffffffff16476040516118b990613937565b60006040518083038185875af1925050503d80600081146118f6576040519150601f19603f3d011682016040523d82523d6000602084013e6118fb565b606091505b505090508061193f576040517f08c379a000000000000000000000000000000000000000000000000000000000815260040161193690613aab565b60405180910390fd5b506001600881905550565b3373ffffffffffffffffffffffffffffffffffffffff163273ffffffffffffffffffffffffffffffffffffffff16146119b8576040517f08c379a00000000000000000000000000000000000000000000000000000000081526004016119af90613a2b565b60405180910390fd5b600960009054906101000a900460ff166119d157600080fd5b6000600c60003373ffffffffffffffffffffffffffffffffffffffff1673ffffffffffffffffffffffffffffffffffffffff1681526020019081526020016000205411611a53576040517f08c379a0000000000000000000000000000000000000000000000000000000008152600401611a4a90613a6b565b60405180910390fd5b6103e86001611a60610b06565b611a6a9190613c42565b1115611aab576040517f08c379a0000000000000000000000000000000000000000000000000000000008152600401611aa290613a4b565b60405180910390fd5b600c60003373ffffffffffffffffffffffffffffffffffffffff1673ffffffffffffffffffffffffffffffffffffffff1681526020019081526020016000206000815480929190611afb90613dc5565b9190505550611b0b336001612819565b3373ffffffffffffffffffffffffffffffffffffffff167f52277f0b4a9b555c5aa96900a13546f972bda413737ec164aac947c87eec60246001604051611b5291906139ce565b60405180910390a2565b611b67848484611f8c565b611b7384848484612837565b611ba9576040517fd1a57ed600000000000000000000000000000000000000000000000000000000815260040160405180910390fd5b50505050565b6060611bba82611e69565b611bf0576040517fa14c4b5000000000000000000000000000000000000000000000000000000000815260040160405180910390fd5b6000611bfa6129c5565b9050600081511415611c1b5760405180602001604052806000815250611c46565b80611c2584612a57565b604051602001611c36929190613913565b6040516020818303038152906040525b915050919050565b600960009054906101000a900460ff1681565b6000611c6c82612c04565b9050919050565b6000600760008473ffffffffffffffffffffffffffffffffffffffff1673ffffffffffffffffffffffffffffffffffffffff16815260200190815260200160002060008373ffffffffffffffffffffffffffffffffffffffff1673ffffffffffffffffffffffffffffffffffffffff16815260200190815260200160002060009054906101000a900460ff16905092915050565b611d0f611ed2565b73ffffffffffffffffffffffffffffffffffffffff16611d2d6112d4565b73ffffffffffffffffffffffffffffffffffffffff1614611d83576040517f08c379a0000000000000000000000000000000000000000000000000000000008152600401611d7a90613a8b565b60405180910390fd5b600073ffffffffffffffffffffffffffffffffffffffff168173ffffffffffffffffffffffffffffffffffffffff161415611df3576040517f08c379a0000000000000000000000000000000000000000000000000000000008152600401611dea90613a0b565b60405180910390fd5b611dfc81612755565b50565b60007f01ffc9a7000000000000000000000000000000000000000000000000000000007bffffffffffffffffffffffffffffffffffffffffffffffffffffffff1916827bffffffffffffffffffffffffffffffffffffffffffffffffffffffff1916149050919050565b6000600160009054906101000a90046fffffffffffffffffffffffffffffffff166fffffffffffffffffffffffffffffffff1682108015611ecb575060046000838152602001908152602001600020600001601c9054906101000a900460ff16155b9050919050565b600033905090565b826006600084815260200190815260200160002060006101000a81548173ffffffffffffffffffffffffffffffffffffffff021916908373ffffffffffffffffffffffffffffffffffffffff160217905550818373ffffffffffffffffffffffffffffffffffffffff168273ffffffffffffffffffffffffffffffffffffffff167f8c5be1e5ebec7d5bd14f71427d1e84f3dd0314c0f7b2291e5b200ac8c7c3b92560405160405180910390a4505050565b6000611f97826124ab565b90506000816000015173ffffffffffffffffffffffffffffffffffffffff16611fbe611ed2565b73ffffffffffffffffffffffffffffffffffffffff161480611ff15750611ff08260000151611feb611ed2565b611c73565b5b806120365750611fff611ed2565b73ffffffffffffffffffffffffffffffffffffffff1661201e8461096c565b73ffffffffffffffffffffffffffffffffffffffff16145b90508061206f576040517f59c896be00000000000000000000000000000000000000000000000000000000815260040160405180910390fd5b8473ffffffffffffffffffffffffffffffffffffffff16826000015173ffffffffffffffffffffffffffffffffffffffff16146120d8576040517fa114810000000000000000000000000000000000000000000000000000000000815260040160405180910390fd5b600073ffffffffffffffffffffffffffffffffffffffff168473ffffffffffffffffffffffffffffffffffffffff16141561213f576040517fea553b3400000000000000000000000000000000000000000000000000000000815260040160405180910390fd5b61214c8585856001612cd4565b61215c6000848460000151611eda565b6001600560008773ffffffffffffffffffffffffffffffffffffffff1673ffffffffffffffffffffffffffffffffffffffff16815260200190815260200160002060000160008282829054906101000a900467ffffffffffffffff160392506101000a81548167ffffffffffffffff021916908367ffffffffffffffff1602179055506001600560008673ffffffffffffffffffffffffffffffffffffffff1673ffffffffffffffffffffffffffffffffffffffff16815260200190815260200160002060000160008282829054906101000a900467ffffffffffffffff160192506101000a81548167ffffffffffffffff021916908367ffffffffffffffff160217905550836004600085815260200190815260200160002060000160006101000a81548173ffffffffffffffffffffffffffffffffffffffff021916908373ffffffffffffffffffffffffffffffffffffffff160217905550426004600085815260200190815260200160002060000160146101000a81548167ffffffffffffffff021916908367ffffffffffffffff1602179055506000600184019050600073ffffffffffffffffffffffffffffffffffffffff166004600083815260200190815260200160002060000160009054906101000a900473ffffffffffffffffffffffffffffffffffffffff1673ffffffffffffffffffffffffffffffffffffffff16141561243b57600160009054906101000a90046fffffffffffffffffffffffffffffffff166fffffffffffffffffffffffffffffffff1681101561243a5782600001516004600083815260200190815260200160002060000160006101000a81548173ffffffffffffffffffffffffffffffffffffffff021916908373ffffffffffffffffffffffffffffffffffffffff16021790555082602001516004600083815260200190815260200160002060000160146101000a81548167ffffffffffffffff021916908367ffffffffffffffff1602179055505b5b50828473ffffffffffffffffffffffffffffffffffffffff168673ffffffffffffffffffffffffffffffffffffffff167fddf252ad1be2c89b69c2b068fc378daa952ba7f163c4a11628f55a4df523b3ef60405160405180910390a46124a48585856001612cda565b5050505050565b6124b3613133565b6000829050600160009054906101000a90046fffffffffffffffffffffffffffffffff166fffffffffffffffffffffffffffffffff1681101561271e576000600460008381526020019081526020016000206040518060600160405290816000820160009054906101000a900473ffffffffffffffffffffffffffffffffffffffff1673ffffffffffffffffffffffffffffffffffffffff1673ffffffffffffffffffffffffffffffffffffffff1681526020016000820160149054906101000a900467ffffffffffffffff1667ffffffffffffffff1667ffffffffffffffff16815260200160008201601c9054906101000a900460ff1615151515815250509050806040015161271c57600073ffffffffffffffffffffffffffffffffffffffff16816000015173ffffffffffffffffffffffffffffffffffffffff1614612600578092505050612750565b5b60011561271b57818060019003925050600460008381526020019081526020016000206040518060600160405290816000820160009054906101000a900473ffffffffffffffffffffffffffffffffffffffff1673ffffffffffffffffffffffffffffffffffffffff1673ffffffffffffffffffffffffffffffffffffffff1681526020016000820160149054906101000a900467ffffffffffffffff1667ffffffffffffffff1667ffffffffffffffff16815260200160008201601c9054906101000a900460ff1615151515815250509050600073ffffffffffffffffffffffffffffffffffffffff16816000015173ffffffffffffffffffffffffffffffffffffffff1614612716578092505050612750565b612601565b5b505b6040517fdf2d9b4200000000000000000000000000000000000000000000000000000000815260040160405180910390fd5b919050565b60008060009054906101000a900473ffffffffffffffffffffffffffffffffffffffff169050816000806101000a81548173ffffffffffffffffffffffffffffffffffffffff021916908373ffffffffffffffffffffffffffffffffffffffff1602179055508173ffffffffffffffffffffffffffffffffffffffff168173ffffffffffffffffffffffffffffffffffffffff167f8be0079c531659141344cd1fd0a4f28419497f9722a3daafe3b4186f6b6457e060405160405180910390a35050565b612833828260405180602001604052806000815250612ce0565b5050565b60006128588473ffffffffffffffffffffffffffffffffffffffff16612cf2565b156129b8578373ffffffffffffffffffffffffffffffffffffffff1663150b7a02612881611ed2565b8786866040518563ffffffff1660e01b81526004016128a39493929190613967565b602060405180830381600087803b1580156128bd57600080fd5b505af19250505080156128ee57506040513d601f19601f820116820180604052508101906128eb919061363f565b60015b612968573d806000811461291e576040519150601f19603f3d011682016040523d82523d6000602084013e612923565b606091505b50600081511415612960576040517fd1a57ed600000000000000000000000000000000000000000000000000000000815260040160405180910390fd5b805181602001fd5b63150b7a0260e01b7bffffffffffffffffffffffffffffffffffffffffffffffffffffffff1916817bffffffffffffffffffffffffffffffffffffffffffffffffffffffff1916149150506129bd565b600190505b949350505050565b6060600d80546129d490613def565b80601f0160208091040260200160405190810160405280929190818152602001828054612a0090613def565b8015612a4d5780601f10612a2257610100808354040283529160200191612a4d565b820191906000526020600020905b815481529060010190602001808311612a3057829003601f168201915b5050505050905090565b60606000821415612a9f576040518060400160405280600181526020017f30000000000000000000000000000000000000000000000000000000000000008152509050612bff565b600082905060005b60008214612ad1578080612aba90613e52565b915050600a82612aca9190613c98565b9150612aa7565b60008167ffffffffffffffff811115612b13577f4e487b7100000000000000000000000000000000000000000000000000000000600052604160045260246000fd5b6040519080825280601f01601f191660200182016040528015612b455781602001600182028036833780820191505090505b5090505b60008514612bf857600182612b5e9190613cc9565b9150600a85612b6d9190613e9b565b6030612b799190613c42565b60f81b818381518110612bb5577f4e487b7100000000000000000000000000000000000000000000000000000000600052603260045260246000fd5b60200101907effffffffffffffffffffffffffffffffffffffffffffffffffffffffffffff1916908160001a905350600a85612bf19190613c98565b9450612b49565b8093505050505b919050565b60008073ffffffffffffffffffffffffffffffffffffffff168273ffffffffffffffffffffffffffffffffffffffff161415612c6c576040517f35ebb31900000000000000000000000000000000000000000000000000000000815260040160405180910390fd5b600560008373ffffffffffffffffffffffffffffffffffffffff1673ffffffffffffffffffffffffffffffffffffffff16815260200190815260200160002060000160089054906101000a900467ffffffffffffffff1667ffffffffffffffff169050919050565b50505050565b50505050565b612ced8383836001612d15565b505050565b6000808273ffffffffffffffffffffffffffffffffffffffff163b119050919050565b6000600160009054906101000a90046fffffffffffffffffffffffffffffffff166fffffffffffffffffffffffffffffffff169050600073ffffffffffffffffffffffffffffffffffffffff168573ffffffffffffffffffffffffffffffffffffffff161415612db1576040517f2e07630000000000000000000000000000000000000000000000000000000000815260040160405180910390fd5b6000841415612dec576040517fb562e8dd00000000000000000000000000000000000000000000000000000000815260040160405180910390fd5b612df96000868387612cd4565b83600560008773ffffffffffffffffffffffffffffffffffffffff1673ffffffffffffffffffffffffffffffffffffffff16815260200190815260200160002060000160008282829054906101000a900467ffffffffffffffff160192506101000a81548167ffffffffffffffff021916908367ffffffffffffffff16021790555083600560008773ffffffffffffffffffffffffffffffffffffffff1673ffffffffffffffffffffffffffffffffffffffff16815260200190815260200160002060000160088282829054906101000a900467ffffffffffffffff160192506101000a81548167ffffffffffffffff021916908367ffffffffffffffff160217905550846004600083815260200190815260200160002060000160006101000a81548173ffffffffffffffffffffffffffffffffffffffff021916908373ffffffffffffffffffffffffffffffffffffffff160217905550426004600083815260200190815260200160002060000160146101000a81548167ffffffffffffffff021916908367ffffffffffffffff160217905550600081905060005b8581101561305e57818773ffffffffffffffffffffffffffffffffffffffff16600073ffffffffffffffffffffffffffffffffffffffff167fddf252ad1be2c89b69c2b068fc378daa952ba7f163c4a11628f55a4df523b3ef60405160405180910390a483801561301257506130106000888488612837565b155b15613049576040517fd1a57ed600000000000000000000000000000000000000000000000000000000815260040160405180910390fd5b81806001019250508080600101915050612f97565b5080600160006101000a8154816fffffffffffffffffffffffffffffffff02191690836fffffffffffffffffffffffffffffffff160217905550506130a66000868387612cda565b5050505050565b8280546130b990613def565b90600052602060002090601f0160209004810192826130db5760008555613122565b82601f106130f457803560ff1916838001178555613122565b82800160010185558215613122579182015b82811115613121578235825591602001919060010190613106565b5b50905061312f9190613176565b5090565b6040518060600160405280600073ffffffffffffffffffffffffffffffffffffffff168152602001600067ffffffffffffffff1681526020016000151581525090565b5b8082111561318f576000816000905550600101613177565b5090565b60006131a66131a184613b6b565b613b46565b905080838252602082019050828560208602820111156131c557600080fd5b60005b858110156131f557816131db88826132a9565b8452602084019350602083019250506001810190506131c8565b5050509392505050565b600061321261320d84613b97565b613b46565b9050808382526020820190508285602086028201111561323157600080fd5b60005b85811015613261578161324788826133c5565b845260208401935060208301925050600181019050613234565b5050509392505050565b600061327e61327984613bc3565b613b46565b90508281526020810184848401111561329657600080fd5b6132a1848285613d83565b509392505050565b6000813590506132b881614159565b92915050565b600082601f8301126132cf57600080fd5b81356132df848260208601613193565b91505092915050565b600082601f8301126132f957600080fd5b81356133098482602086016131ff565b91505092915050565b60008135905061332181614170565b92915050565b60008135905061333681614187565b92915050565b60008151905061334b81614187565b92915050565b600082601f83011261336257600080fd5b813561337284826020860161326b565b91505092915050565b60008083601f84011261338d57600080fd5b8235905067ffffffffffffffff8111156133a657600080fd5b6020830191508360018202830111156133be57600080fd5b9250929050565b6000813590506133d48161419e565b92915050565b6000602082840312156133ec57600080fd5b60006133fa848285016132a9565b91505092915050565b6000806040838503121561341657600080fd5b6000613424858286016132a9565b9250506020613435858286016132a9565b9150509250929050565b60008060006060848603121561345457600080fd5b6000613462868287016132a9565b9350506020613473868287016132a9565b9250506040613484868287016133c5565b9150509250925092565b600080600080608085870312156134a457600080fd5b60006134b2878288016132a9565b94505060206134c3878288016132a9565b93505060406134d4878288016133c5565b925050606085013567ffffffffffffffff8111156134f157600080fd5b6134fd87828801613351565b91505092959194509250565b6000806040838503121561351c57600080fd5b600061352a858286016132a9565b925050602061353b85828601613312565b9150509250929050565b6000806040838503121561355857600080fd5b6000613566858286016132a9565b9250506020613577858286016133c5565b9150509250929050565b6000806040838503121561359457600080fd5b600083013567ffffffffffffffff8111156135ae57600080fd5b6135ba858286016132be565b925050602083013567ffffffffffffffff8111156135d757600080fd5b6135e3858286016132e8565b9150509250929050565b6000602082840312156135ff57600080fd5b600061360d84828501613312565b91505092915050565b60006020828403121561362857600080fd5b600061363684828501613327565b91505092915050565b60006020828403121561365157600080fd5b600061365f8482850161333c565b91505092915050565b6000806020838503121561367b57600080fd5b600083013567ffffffffffffffff81111561369557600080fd5b6136a18582860161337b565b92509250509250929050565b6000602082840312156136bf57600080fd5b60006136cd848285016133c5565b91505092915050565b6136df81613cfd565b82525050565b6136ee81613d0f565b82525050565b60006136ff82613bf4565b6137098185613c0a565b9350613719818560208601613d92565b61372281613f88565b840191505092915050565b61373681613d71565b82525050565b600061374782613bff565b6137518185613c26565b9350613761818560208601613d92565b61376a81613f88565b840191505092915050565b600061378082613bff565b61378a8185613c37565b935061379a818560208601613d92565b80840191505092915050565b60006137b3602683613c26565b91506137be82613f99565b604082019050919050565b60006137d6601e83613c26565b91506137e182613fe8565b602082019050919050565b60006137f9601283613c26565b915061380482614011565b602082019050919050565b600061381c601f83613c26565b91506138278261403a565b602082019050919050565b600061383f602083613c26565b915061384a82614063565b602082019050919050565b6000613862600083613c1b565b915061386d8261408c565b600082019050919050565b6000613885601083613c26565b91506138908261408f565b602082019050919050565b60006138a8601683613c26565b91506138b3826140b8565b602082019050919050565b60006138cb601f83613c26565b91506138d6826140e1565b602082019050919050565b60006138ee602883613c26565b91506138f98261410a565b604082019050919050565b61390d81613d67565b82525050565b600061391f8285613775565b915061392b8284613775565b91508190509392505050565b600061394282613855565b9150819050919050565b600060208201905061396160008301846136d6565b92915050565b600060808201905061397c60008301876136d6565b61398960208301866136d6565b6139966040830185613904565b81810360608301526139a881846136f4565b905095945050505050565b60006020820190506139c860008301846136e5565b92915050565b60006020820190506139e3600083018461372d565b92915050565b60006020820190508181036000830152613a03818461373c565b905092915050565b60006020820190508181036000830152613a24816137a6565b9050919050565b60006020820190508181036000830152613a44816137c9565b9050919050565b60006020820190508181036000830152613a64816137ec565b9050919050565b60006020820190508181036000830152613a848161380f565b9050919050565b60006020820190508181036000830152613aa481613832565b9050919050565b60006020820190508181036000830152613ac481613878565b9050919050565b60006020820190508181036000830152613ae48161389b565b9050919050565b60006020820190508181036000830152613b04816138be565b9050919050565b60006020820190508181036000830152613b24816138e1565b9050919050565b6000602082019050613b406000830184613904565b92915050565b6000613b50613b61565b9050613b5c8282613e21565b919050565b6000604051905090565b600067ffffffffffffffff821115613b8657613b85613f59565b5b602082029050602081019050919050565b600067ffffffffffffffff821115613bb257613bb1613f59565b5b602082029050602081019050919050565b600067ffffffffffffffff821115613bde57613bdd613f59565b5b613be782613f88565b9050602081019050919050565b600081519050919050565b600081519050919050565b600082825260208201905092915050565b600081905092915050565b600082825260208201905092915050565b600081905092915050565b6000613c4d82613d67565b9150613c5883613d67565b9250827fffffffffffffffffffffffffffffffffffffffffffffffffffffffffffffffff03821115613c8d57613c8c613ecc565b5b828201905092915050565b6000613ca382613d67565b9150613cae83613d67565b925082613cbe57613cbd613efb565b5b828204905092915050565b6000613cd482613d67565b9150613cdf83613d67565b925082821015613cf257613cf1613ecc565b5b828203905092915050565b6000613d0882613d47565b9050919050565b60008115159050919050565b60007fffffffff0000000000000000000000000000000000000000000000000000000082169050919050565b600073ffffffffffffffffffffffffffffffffffffffff82169050919050565b6000819050919050565b6000613d7c82613d67565b9050919050565b82818337600083830152505050565b60005b83811015613db0578082015181840152602081019050613d95565b83811115613dbf576000848401525b50505050565b6000613dd082613d67565b91506000821415613de457613de3613ecc565b5b600182039050919050565b60006002820490506001821680613e0757607f821691505b60208210811415613e1b57613e1a613f2a565b5b50919050565b613e2a82613f88565b810181811067ffffffffffffffff82111715613e4957613e48613f59565b5b80604052505050565b6000613e5d82613d67565b91507fffffffffffffffffffffffffffffffffffffffffffffffffffffffffffffffff821415613e9057613e8f613ecc565b5b600182019050919050565b6000613ea682613d67565b9150613eb183613d67565b925082613ec157613ec0613efb565b5b828206905092915050565b7f4e487b7100000000000000000000000000000000000000000000000000000000600052601160045260246000fd5b7f4e487b7100000000000000000000000000000000000000000000000000000000600052601260045260246000fd5b7f4e487b7100000000000000000000000000000000000000000000000000000000600052602260045260246000fd5b7f4e487b7100000000000000000000000000000000000000000000000000000000600052604160045260246000fd5b6000601f19601f8301169050919050565b7f4f776e61626c653a206e6577206f776e657220697320746865207a65726f206160008201527f6464726573730000000000000000000000000000000000000000000000000000602082015250565b7f5468652063616c6c657220697320616e6f7468657220636f6e74726163740000600082015250565b7f72656163686564206d617820737570706c790000000000000000000000000000600082015250565b7f6e6f7420656c696769626c6520666f7220616c6c6f776c697374206d696e7400600082015250565b7f4f776e61626c653a2063616c6c6572206973206e6f7420746865206f776e6572600082015250565b50565b7f5472616e73666572206661696c65642e00000000000000000000000000000000600082015250565b7f63616e206e6f74206d696e742074686973206d616e7900000000000000000000600082015250565b7f5265656e7472616e637947756172643a207265656e7472616e742063616c6c00600082015250565b7f61646472657373657320646f6573206e6f74206d61746368206e756d536c6f7460008201527f73206c656e677468000000000000000000000000000000000000000000000000602082015250565b61416281613cfd565b811461416d57600080fd5b50565b61417981613d0f565b811461418457600080fd5b50565b61419081613d1b565b811461419b57600080fd5b50565b6141a781613d67565b81146141b257600080fd5b5056fea264697066735822122017b9904c5e5a27a450a7ad948fd8aaea9236f147a71b01cafb8b612b0ee184ad64736f6c63430008040033",
  "linkReferences": {},
  "deployedLinkReferences": {}
}